:100000000C9435000C945D000C945D000C945D0024
:100010000C945D000C945D000C945D000C945D00EC
:100020000C945D000C945D000C945D000C945D00DC
:100030000C945D000C945D000C945D000C945D00CC
:100040000C9459060C945D000C945D000C945D00BA
:100050000C945D000C945D000C945D000C945D00AC
:100060000C945D000C945D00370611241FBECFEF89
:10007000D8E0DEBFCDBF11E0A0E0B1E0E8EEFFE0E8
:1000800002C005900D92A031B107D9F722E0A0E19E
:10009000B1E001C01D92A73BB207E1F710E0CAE64C
:1000A000D0E004C02297FE010E94DF07C836D107C6
:1000B000C9F70E9440070C94F2070C940000FC0161
:1000C00085859685089580E090E00895CF93DF932D
:1000D00000D000D000D0CDB7DEB7AB01DC01ED9190
:1000E000FC910190F081E02D19821A821B821C8202
:1000F0001D821E829E012F5F3F4FBE016C5F7F4FAE
:10010000099526960FB6F894DEBF0FBECDBFDF91DE
:10011000CF910895EF92FF920F931F93CF93DF93A8
:1001200000D01F92CDB7DEB74091220141504093DD
:10013000220124E163E770E08AE391E00E94720308
:100140000E94A30628EE33E040E050E00E949107B1
:10015000CA01B90128E230E040E050E00E94910776
:10016000162F643140F4EE24EA94E98226EDF22E53
:10017000FA820AEA07C089ECE82EE98292EEF92EAB
:10018000FA820FEF0B83BE016F5F7F4F81EA92E02F
:100190000E948D04E0922B01F0922C0100932D011E
:1001A000812F64E10E945D07933038F448E651E006
:1001B00060E08BE291E00E944E066091A10281EA2C
:1001C00092E00E94F20448E050E060E070E081EAD2
:1001D00092E00E9484050F900F900F90DF91CF91D5
:1001E0001F910F91FF90EF90089568EB7BE080E006
:1001F00090E00E94D2068091230181114DC083E2DC
:1002000091E00E943307892B09F446C01092140133
:10021000109213018FEF8093170180931801809340
:10022000190180931A0180931B0180931C0181E0C6
:1002300080931D0110921F0110921E011092160151
:100240001092150180919F029091A002892B31F4A8
:1002500081E191E09093A00280939F02E0919D0242
:10026000F0919E02309721F081E191E095838483A3
:1002700081E191E090939E0280939D0284E091E061
:10028000909312018093110110922101109220018C
:1002900083E291E00E943C0720E030E048E750E034
:1002A0006BE271E081E191E00E94FC05FC018FEFBF
:1002B000868380EB878380EF808780E88093A1022C
:1002C0000895DC018D919C91009739F0DC01ED914E
:1002D000FC910190F081E02D0994089587FF02C000
:1002E0005C9A01C05C985D9A5D9886FF02C05C9A3A
:1002F00001C05C985D9A5D9885FF02C05C9A01C060
:100300005C985D9A5D9884FF02C05C9A01C05C981D
:100310005D9A5D9883FF02C05C9A01C05C985D9A0B
:100320005D9882FF02C05C9A01C05C985D9A5D98FE
:1003300081FF02C05C9A01C05C985D9A5D9880FF65
:1003400002C05C9A01C05C985D9A5D98089580E057
:100350000E946E0180E00E946E0180E00E946E01AA
:1003600080E00C946E01CF93DF9397FD4F96EC01E4
:1003700035E0D595C7953A95E1F78FEF0E946E016C
:1003800080E00E946E0180E00E946E0180E00E9489
:100390006E01219790F7DF91CF910895DC018D9147
:1003A0009C91009739F0DC01ED91FC910280F38182
:1003B000E02D09940895549A559A0F960C94CE0105
:1003C000FF920F931F93CF93DF93EC018091100165
:1003D0008F5F982F97709093100180FD02C080E08E
:1003E00001C080E891FD8064947009F0806240E172
:1003F000F42EF80E20E030E000E011E0FE01E20F04
:10040000F31F6285662331F070E0C8010E947D070A
:100410006F5F01C060E067834F2D469F412D11241F
:100420004483662311F0615067832F5F3F4F233071
:10043000310521F7DF91CF911F910F91FF90089522
:10044000CF92DF92EF92FF920F931F93CF93DF93A0
:10045000CDB7DEB72E970FB6F894DEBF0FBECDBF77
:100460006C017A01F901DC011C968C917A83698315
:100470005C834B8390819B8791819C8792819D8730
:10048000813029F4CE0101960E94E00106C01A864F
:10049000198618861F821E821D821E86BFE0CB0E23
:1004A000D11CC6010E9461010E94A70100E010E07A
:1004B0000E151F050CF051C08FEF0E946E01E981EF
:1004C000FA818281882339F02F81382F320F08F486
:1004D0003FEF832F01C080E02D85382F329F312DD3
:1004E0001124832F0E946E01E981FA818081882383
:1004F00039F02D81382F320F08F43FEF832F01C0E0
:1005000080E02B85382F329F312D1124832F0E94BC
:100510006E01E981FA818181882339F02E81382F9B
:10052000320F08F43FEF832F01C080E02C85382F75
:10053000329F312D1124832F0E946E0188859D8169
:10054000891B8D8389859E81891B8E838A859F81E6
:10055000891B8F830F5F1F4FABCFC7010E94B30171
:10056000C6010E94CE012E960FB6F894DEBF0FBED4
:10057000CDBFDF91CF911F910F91FF90EF90DF9052
:10058000CF900895CF92DF92EF92FF920F931F9337
:10059000CF93DF93CDB7DEB72E970FB6F894DEBFBB
:1005A0000FBECDBF6C017A01F901DC011C968C9164
:1005B0007A8369835C834B8390819B8791819C873D
:1005C00092819D87813029F4CE0101960E94E0013D
:1005D00006C01A86198618861F821E821D8283E035
:1005E0008E87BFE0CB0ED11CC6010E9461010E9424
:1005F000A70100E010E00E151F050CF05EC08FEFA4
:100600000E946E01E981FA818281882339F02F816D
:10061000382F320F08F43FEF832F01C080E02D8583
:10062000382F329F312D1124832F0E946E01E981D2
:10063000FA818081882339F02D81382F320F08F418
:100640003FEF832F01C080E02B85382F329F312D63
:100650001124832F0E946E01E981FA818181882310
:1006600039F02E81382F320F08F43FEF832F01C06D
:1006700080E02C85382F329F312D1124832F0E944A
:100680006E0188859D81891B8D8389859E81891B4B
:100690008E838A859F81891B8F838E8529813A81EC
:1006A000280F311D3A8329832B813C812150310948
:1006B0003C832B830F5F1F4F9ECFC7010E94B30166
:1006C000C6010E94CE012E960FB6F894DEBF0FBE73
:1006D000CDBFDF91CF911F910F91FF90EF90DF90F1
:1006E000CF900895CF92DF92EF92FF920F931F93D6
:1006F000CF93DF9300D000D0CDB7DEB76B01498335
:100700003FEF3B8330EF3A837C0100E010E00C15B3
:100710001D0584F4B701CE0101962C830E94A70326
:1007200089812C81820F89830F5F1F4F83E0E80E40
:10073000F11CEDCF0F900F900F900F90DF91CF91A4
:100740001F910F91FF90EF90DF90CF900895FC01E3
:10075000DB01408161817281242F2F71220F220FD2
:10076000220F522F35E5539F512D1124352F942FF1
:100770009074842F807247FD1DC091110AC08111B1
:1007800003C03095452F0FC045E5450F20E03BEAFB
:100790002BC081110AC03AEA239F212D11243BEA84
:1007A000321B4BEA450F20E01FC080E0452F4095EB
:1007B000252F0BC091110EC0811109C03AEA239F69
:1007C000212D11244BEA421B2B5A30E00DC0252F5E
:1007D000209509C0811103C03B5A2BEA03C035554F
:1007E00080E025E5251B40E06F3FF1F06623C9F06E
:1007F000332319F0369F312D3F5F442319F0469F74
:10080000412D4F5F222319F0269F212D2F5F1124A8
:10081000562F5095559F512D1124350F450F250FFB
:1008200003C02FEF4FEF3FEF7F3FE9F050E077231A
:1008300021F0779F512D09F05F5F552389F0332315
:1008400019F0359F312D3F5F442319F0459F412D0D
:100850004F5F222319F0259F212D2F5F112403C004
:1008600020E040E030E03C9311964C9311971296B3
:100870002C9308958F929F92AF92BF92EF92FF9226
:100880000F931F93CF93DF93EC01188219821A8282
:100890004423B9F1E0E0F0E08B010A5F1F4F7B01D8
:1008A00089E0E80EF11C842E912CA12CB12CD801EA
:1008B000AE0FBF1F2C91D701AE0FBF1F6C9122232B
:1008C000E1F06623D1F030E040E050E02F5F3F4F91
:1008D0004F4F5F4F70E080E090E06F5F7F4F8F4F32
:1008E0009F4F0E944D079B01AC01C501B4010E94BE
:1008F0004D07DE01AE0FBF1F8C933196E330F1053B
:10090000B1F6CE01DF91CF911F910F91FF90EF9043
:10091000BF90AF909F908F900895DB01E0919F0270
:10092000F091A002309771F02C9111969C91119743
:1009300012968C9112972187928783870480F58184
:10094000E02DF0CF0895CF92DF92EF92FF92CF93F8
:10095000DF93EC0180919702909198029C012F5FA8
:100960003F4F3093980220939702861797079CF188
:100970000E94A3069B01AC01E0919702F0919802BE
:1009800088EE93E0E89FB001E99F700DF89F700D2D
:100990001124882777FD8095982FC0909302D090DE
:1009A0009402E0909502F09096022C193D094E09B0
:1009B0005F090E9491073A8329831092980210924E
:1009C00097020E94A306609393027093940280930F
:1009D000950290939602DF91CF91FF90EF90DF9078
:1009E000CF9008958F929F92AF92BF92EF92FF9215
:1009F0000F931F93CF93DF9300D01F92CDB7DEB735
:100A00008C01F62EF80183819481A581B681892B12
:100A10008A2B8B2BD1F00E94AF0680909902909088
:100A20009A02A0909B02B0909C02681979098A09E9
:100A30009B09D80113968D909D90AD90BC90169710
:100A4000681579058A059B05E8F20E94AF06609358
:100A5000990270939A0280939B0290939C02D80112
:100A60001B96ED91FC911C97309751F0D801179689
:100A70004D915D916D917C911A978F2D0995F82E6E
:100A8000A0909F02B090A002A114B10451F1F50111
:100A9000E484D80111968D919C911297843691052A
:100AA00008F41486D501ED91FC91828093804F2D3E
:100AB000B501CE0101960E943A04F501458556859F
:100AC000628173819E012F5F3F4FC501F40109953B
:100AD000D5011C96EC921C971496AD90BC9015977E
:100AE000D3CF69E170E0C8010E94A3040F900F907A
:100AF0000F90DF91CF911F910F91FF90EF90BF90DA
:100B0000AF909F908F9008958F929F92AF92BF92D7
:100B1000CF92DF92EF92FF92CF93DF93EC016A01C5
:100B20007B010E94A3064B015C0161E070E080E064
:100B300090E00E94D2066881CE010E94F2040E94D9
:100B4000A306681979098A099B096C157D058E052C
:100B50009F0558F3DF91CF91FF90EF90DF90CF90FA
:100B6000BF90AF909F908F900895CF92DF92EF92B9
:100B7000FF920F931F93CF93DF93EC014423F1F087
:100B80006115710581F19B0140E050E060E472E481
:100B90008FE090E00E94B307CB80DC80ED80FE8088
:100BA00089019A010C151D052E053F0510F49701CA
:100BB00086010B831C832D833E8315C0611571054F
:100BC00071F09B0140E050E060E472E48FE090E05F
:100BD0000E94B3072B833C834D835E8304C01B823A
:100BE0001C821D821E82DF91CF911F910F91FF9079
:100BF000EF90DF90CF900895CF92DF92EF92FF9227
:100C00000F931F93CF93DF93EC016B018A0179015E
:100C1000121613061CF07A0100E010E0E881F98159
:100C20000480F581E02DCE010995C801880F991F38
:100C3000800F911F8C0D9D1D9B838A83FE86ED8600
:100C4000E881F9810284F385E02DCE01099541E028
:100C5000BC0181EA92E00E94B505CE01DF91CF91FF
:100C60001F910F91FF90EF90DF90CF9008958FEF3D
:100C70008093A1021092A3021092A2021092AD02E0
:100C80001092AC028FEF9FEFDC018093A80290934B
:100C9000A902A093AA02B093AB020895DC0140FF21
:100CA00003C001C06D936D934250E0F75040D0F700
:100CB00008951F920F920FB60F9211242F933F9316
:100CC0008F939F93AF93BF938091AF029091B002A7
:100CD000A091B102B091B2023091AE0223E0230F95
:100CE0002D3720F40196A11DB11D05C026E8230F64
:100CF0000296A11DB11D2093AE028093AF02909386
:100D0000B002A093B102B093B2028091B30290916D
:100D1000B402A091B502B091B6020196A11DB11D19
:100D20008093B3029093B402A093B502B093B6023D
:100D3000BF91AF919F918F913F912F910F900FBED7
:100D40000F901F9018952FB7F8946091AF02709193
:100D5000B0028091B1029091B2022FBF08953FB7C7
:100D6000F8948091B3029091B402A091B502B09131
:100D7000B60226B5A89B05C02F3F19F00196A11D0C
:100D8000B11D3FBF6627782F892F9A2F620F711DE3
:100D9000811D911D42E0660F771F881F991F4A959C
:100DA000D1F70895CF92DF92EF92FF92CF93DF9326
:100DB0006B017C010E94AF06EB01C114D104E10478
:100DC000F10479F00E94AF066C1B7D0B683E734006
:100DD000A0F381E0C81AD108E108F108C851DC4F3E
:100DE000ECCFDF91CF91FF90EF90DF90CF900895FF
:100DF000789484B5826084BD84B5816084BD85B5F6
:100E0000826085BD85B5816085BDEEE6F0E08081BC
:100E100081608083E1E8F0E01082808182608083DD
:100E2000808181608083E0E8F0E080818160808360
:100E3000E1EBF0E0808184608083E0EBF0E0808192
:100E400081608083EAE7F0E0808184608083808134
:100E500082608083808181608083808180688083DC
:100E60001092C1000895FC0181E090E020812223CE
:100E700011F080E090E0089521E0FC0120830895C6
:100E80000E94F8060E94F500C0E0D0E00E948A00AF
:100E90002097E1F30E940000F9CFDB018F939F932D
:100EA0000E94D207BF91AF91A29F800D911DA39F79
:100EB000900DB29F900D11240895991B79E004C004
:100EC000991F961708F0961B881F7A95C9F7809589
:100ED0000895AA1BBB1B51E107C0AA1FBB1FA61781
:100EE000B70710F0A61BB70B881F991F5A95A9F7D3
:100EF00080959095BC01CD01089597FB072E16F4BF
:100F0000009407D077FD09D00E94690707FC05D03F
:100F10003EF4909581959F4F0895709561957F4F10
:100F20000895A1E21A2EAA1BBB1BFD010DC0AA1F2A
:100F3000BB1FEE1FFF1FA217B307E407F50720F042
:100F4000A21BB30BE40BF50B661F771F881F991FBD
:100F50001A9469F760957095809590959B01AC0106
:100F6000BD01CF010895052E97FB1EF400940E9449
:100F7000CA0757FD07D00E94910707FC03D04EF423
:100F80000C94CA0750954095309521953F4F4F4F8F
:100F90005F4F089590958095709561957F4F8F4F25
:100FA0009F4F08950E94E307A59F900DB49F900D59
:100FB000A49F800D911D11240895EE0FFF1F059031
:100FC000F491E02D0994A29FB001B39FC001A39FAB
:100FD000700D811D1124911DB29F700D811D112472
:080FE000911D0895F894FFCF64
:100FE800000000002002C202DB0166005F0063000F
:00000001FF
